{
  "_format": "hh-sol-artifact-1",
  "contractName": "TokenizedBallot",
  "sourceName": "contracts/TokenizedBallot.sol",
  "abi": [
    {
      "inputs": [
        {
          "internalType": "bytes32[]",
          "name": "_proposalNames",
          "type": "bytes32[]"
        },
        {
          "internalType": "address",
          "name": "_tokenContract",
          "type": "address"
        },
        {
          "internalType": "uint256",
          "name": "_targetBlockNumber",
          "type": "uint256"
        }
      ],
      "stateMutability": "nonpayable",
      "type": "constructor"
    },
    {
      "inputs": [
        {
          "internalType": "address",
          "name": "voter",
          "type": "address"
        }
      ],
      "name": "getVotePower",
      "outputs": [
        {
          "internalType": "uint256",
          "name": "voterPower_",
          "type": "uint256"
        }
      ],
      "stateMutability": "view",
      "type": "function"
    },
    {
      "inputs": [
        {
          "internalType": "uint256",
          "name": "",
          "type": "uint256"
        }
      ],
      "name": "proposals",
      "outputs": [
        {
          "internalType": "bytes32",
          "name": "name",
          "type": "bytes32"
        },
        {
          "internalType": "uint256",
          "name": "voteCount",
          "type": "uint256"
        }
      ],
      "stateMutability": "view",
      "type": "function"
    },
    {
      "inputs": [
        {
          "internalType": "address",
          "name": "",
          "type": "address"
        }
      ],
      "name": "spentVotePower",
      "outputs": [
        {
          "internalType": "uint256",
          "name": "",
          "type": "uint256"
        }
      ],
      "stateMutability": "view",
      "type": "function"
    },
    {
      "inputs": [],
      "name": "targetBlockNumber",
      "outputs": [
        {
          "internalType": "uint256",
          "name": "",
          "type": "uint256"
        }
      ],
      "stateMutability": "view",
      "type": "function"
    },
    {
      "inputs": [],
      "name": "tokenContract",
      "outputs": [
        {
          "internalType": "contract IMyToken",
          "name": "",
          "type": "address"
        }
      ],
      "stateMutability": "view",
      "type": "function"
    },
    {
      "inputs": [
        {
          "internalType": "uint256",
          "name": "proposal",
          "type": "uint256"
        },
        {
          "internalType": "uint256",
          "name": "amount",
          "type": "uint256"
        }
      ],
      "name": "vote",
      "outputs": [],
      "stateMutability": "nonpayable",
      "type": "function"
    },
    {
      "inputs": [],
      "name": "winnerName",
      "outputs": [
        {
          "internalType": "bytes32",
          "name": "winnerName_",
          "type": "bytes32"
        }
      ],
      "stateMutability": "view",
      "type": "function"
    },
    {
      "inputs": [],
      "name": "winningProposal",
      "outputs": [
        {
          "internalType": "uint256",
          "name": "winningProposal_",
          "type": "uint256"
        }
      ],
      "stateMutability": "view",
      "type": "function"
    }
  ],
  "bytecode": "0x60806040523480156200001157600080fd5b5060405162000e2938038062000e298339818101604052810190620000379190620003c3565b816000806101000a81548173ffffffffffffffffffffffffffffffffffffffff021916908373ffffffffffffffffffffffffffffffffffffffff16021790555080600281905550436002541115620000c6576040517f08c379a0000000000000000000000000000000000000000000000000000000008152600401620000bd90620004c5565b60405180910390fd5b60005b8351811015620001555760016040518060400160405280868481518110620000f657620000f5620004e7565b5b6020026020010151815260200160008152509080600181540180825580915050600190039060005260206000209060020201600090919091909150600082015181600001556020820151816001015550508080600101915050620000c9565b5050505062000516565b6000604051905090565b600080fd5b600080fd5b600080fd5b6000601f19601f8301169050919050565b7f4e487b7100000000000000000000000000000000000000000000000000000000600052604160045260246000fd5b620001c38262000178565b810181811067ffffffffffffffff82111715620001e557620001e462000189565b5b80604052505050565b6000620001fa6200015f565b9050620002088282620001b8565b919050565b600067ffffffffffffffff8211156200022b576200022a62000189565b5b602082029050602081019050919050565b600080fd5b6000819050919050565b620002568162000241565b81146200026257600080fd5b50565b60008151905062000276816200024b565b92915050565b6000620002936200028d846200020d565b620001ee565b90508083825260208201905060208402830185811115620002b957620002b86200023c565b5b835b81811015620002e65780620002d1888262000265565b845260208401935050602081019050620002bb565b5050509392505050565b600082601f83011262000308576200030762000173565b5b81516200031a8482602086016200027c565b91505092915050565b600073ffffffffffffffffffffffffffffffffffffffff82169050919050565b6000620003508262000323565b9050919050565b620003628162000343565b81146200036e57600080fd5b50565b600081519050620003828162000357565b92915050565b6000819050919050565b6200039d8162000388565b8114620003a957600080fd5b50565b600081519050620003bd8162000392565b92915050565b600080600060608486031215620003df57620003de62000169565b5b600084015167ffffffffffffffff8111156200040057620003ff6200016e565b5b6200040e86828701620002f0565b9350506020620004218682870162000371565b92505060406200043486828701620003ac565b9150509250925092565b600082825260208201905092915050565b7f546f6b656e697a656442616c6c6f743a20746172676574426c6f636b4e756d6260008201527f6572206d75737420626520696e20746865207061737400000000000000000000602082015250565b6000620004ad6036836200043e565b9150620004ba826200044f565b604082019050919050565b60006020820190508181036000830152620004e0816200049e565b9050919050565b7f4e487b7100000000000000000000000000000000000000000000000000000000600052603260045260246000fd5b61090380620005266000396000f3fe608060405234801561001057600080fd5b50600436106100885760003560e01c8063609ff1bd1161005b578063609ff1bd1461012a578063b384abef14610148578063bb9c092014610164578063e2ba53f01461019457610088565b8063013cf08b1461008d5780632a8cd29e146100be57806346a38bc8146100dc57806355a373d61461010c575b600080fd5b6100a760048036038101906100a291906104f1565b6101b2565b6040516100b5929190610546565b60405180910390f35b6100c66101e6565b6040516100d3919061056f565b60405180910390f35b6100f660048036038101906100f191906105e8565b6101ec565b604051610103919061056f565b60405180910390f35b610114610204565b6040516101219190610674565b60405180910390f35b610132610228565b60405161013f919061056f565b60405180910390f35b610162600480360381019061015d919061068f565b6102aa565b005b61017e600480360381019061017991906105e8565b610391565b60405161018b919061056f565b60405180910390f35b61019c610482565b6040516101a991906106cf565b60405180910390f35b600181815481106101c257600080fd5b90600052602060002090600202016000915090508060000154908060010154905082565b60025481565b60036020528060005260406000206000915090505481565b60008054906101000a900473ffffffffffffffffffffffffffffffffffffffff1681565b6000806000905060005b6001805490508110156102a5578160018281548110610254576102536106ea565b5b906000526020600020906002020160010154111561029857600181815481106102805761027f6106ea565b5b90600052602060002090600202016001015491508092505b8080600101915050610232565b505090565b60006102b533610391565b9050818110156102fa576040517f08c379a00000000000000000000000000000000000000000000000000000000081526004016102f19061079c565b60405180910390fd5b81600360003373ffffffffffffffffffffffffffffffffffffffff1673ffffffffffffffffffffffffffffffffffffffff168152602001908152602001600020600082825461034991906107eb565b925050819055508160018481548110610365576103646106ea565b5b9060005260206000209060020201600101600082825461038591906107eb565b92505081905550505050565b6000600360008373ffffffffffffffffffffffffffffffffffffffff1673ffffffffffffffffffffffffffffffffffffffff1681526020019081526020016000205460008054906101000a900473ffffffffffffffffffffffffffffffffffffffff1673ffffffffffffffffffffffffffffffffffffffff16633a46b1a8846002546040518363ffffffff1660e01b815260040161043092919061082e565b602060405180830381865afa15801561044d573d6000803e3d6000fd5b505050506040513d601f19601f82011682018060405250810190610471919061086c565b61047b9190610899565b9050919050565b6000600161048e610228565b8154811061049f5761049e6106ea565b5b906000526020600020906002020160000154905090565b600080fd5b6000819050919050565b6104ce816104bb565b81146104d957600080fd5b50565b6000813590506104eb816104c5565b92915050565b600060208284031215610507576105066104b6565b5b6000610515848285016104dc565b91505092915050565b6000819050919050565b6105318161051e565b82525050565b610540816104bb565b82525050565b600060408201905061055b6000830185610528565b6105686020830184610537565b9392505050565b60006020820190506105846000830184610537565b92915050565b600073ffffffffffffffffffffffffffffffffffffffff82169050919050565b60006105b58261058a565b9050919050565b6105c5816105aa565b81146105d057600080fd5b50565b6000813590506105e2816105bc565b92915050565b6000602082840312156105fe576105fd6104b6565b5b600061060c848285016105d3565b91505092915050565b6000819050919050565b600061063a6106356106308461058a565b610615565b61058a565b9050919050565b600061064c8261061f565b9050919050565b600061065e82610641565b9050919050565b61066e81610653565b82525050565b60006020820190506106896000830184610665565b92915050565b600080604083850312156106a6576106a56104b6565b5b60006106b4858286016104dc565b92505060206106c5858286016104dc565b9150509250929050565b60006020820190506106e46000830184610528565b92915050565b7f4e487b7100000000000000000000000000000000000000000000000000000000600052603260045260246000fd5b600082825260208201905092915050565b7f546f6b656e697a656442616c6c6f743a20696e73756666696369656e7420766f60008201527f74696e6720706f77657200000000000000000000000000000000000000000000602082015250565b6000610786602a83610719565b91506107918261072a565b604082019050919050565b600060208201905081810360008301526107b581610779565b9050919050565b7f4e487b7100000000000000000000000000000000000000000000000000000000600052601160045260246000fd5b60006107f6826104bb565b9150610801836104bb565b9250828201905080821115610819576108186107bc565b5b92915050565b610828816105aa565b82525050565b6000604082019050610843600083018561081f565b6108506020830184610537565b9392505050565b600081519050610866816104c5565b92915050565b600060208284031215610882576108816104b6565b5b600061089084828501610857565b91505092915050565b60006108a4826104bb565b91506108af836104bb565b92508282039050818111156108c7576108c66107bc565b5b9291505056fea2646970667358221220079426f8a0b2d66ab6cbcf523a5b449342d05185b95a0b1ebe0ebb40a687762164736f6c63430008180033",
  "linkReferences": {},
  "deployedLinkReferences": {}
}